:020000001528C1
:0C00060083120D088A000C08820008001C
:1000120003208A110A128000840A8C0A03198D0AAD
:08002200C003031D09280800BA
:10002A00831686018312860106160330CB008A30B6
:10003A00CC005530CD00CD0B2028CC0B2028CB0B83
:10004A00202800000000061286160330CB008A30F2
:10005A00CC005530CD00CD0B3028CC0B3028CB0B43
:10006A00302800000000861206170330CB008A30C1
:10007A00CC005530CD00CD0B4028CC0B4028CB0B03
:10008A00402800000000061386170330CB008A3090
:10009A00CC005530CD00CD0B5028CC0B5028CB0BC3
:0C00AA00502800000000861319285A2876
:02400E00FA3F77
:00000001FF
